:20000000B9C10000E8C10000E6C10000E4C10000E2C10000E0C10000DEC10000DCC10000F1
:20002000DAC10000D8C10000D6C10000D4C10000D2C10000D0C10000CEC10000CCC1000020
:20004000CAC10000C8C10000C6C10000C4C10000C2C10000C0C10000BEC1000056C50000E2
:20006000BAC1000067C400003CC40000B4C10000B2C10000B0C10000AEC10000ACC10000A5
:20008000AAC10000A8C10000A6C10000A4C10000A2C10000A0C100009EC100009CC1000040
:2000A0009AC1000098C1000096C1000094C1000092C1000090C100008EC100008CC10000A0
:2000C0008AC1000088C1000086C1000084C1000082C1000080C100007EC100007CC1000000
:2000E0007AC10000FF040205F104F504F904390506050A051005140518051E0522052605B8
:2001000039052C05300534052F2B393837363534333231307A797877767574737271706F25
:200120006E6D6C6B6A6968676665646362615A595857565554535251504F4E4D4C4B4A495B
:2001400048474645444342410067E6096A85AE67BB72F36E3C3AF54FA57F520E518C68050B
:200160009BABD9831F19CDE05B982F8A4291443771CFFBC0B5A5DBB5E95BC25639F111F191
:2001800059A4823F92D55E1CAB98AA07D8015B8312BE853124C37D0C55745DBE72FEB1DE3C
:2001A00080A706DC9B74F19BC1C1699BE48647BEEFC69DC10FCCA10C246F2CE92DAA847494
:2001C0004ADCA9B05CDA88F97652513E986DC631A8C82703B0C77F59BFF30BE0C64791A7CB
:2001E000D55163CA0667292914850AB72738211B2EFC6D2C4D130D385354730A65BB0A6AD8
:20020000762EC9C281852C7292A1E8BFA24B661AA8708B4BC2A3516CC719E892D1240699C6
:20022000D685350EF470A06A1016C1A419086C371E4C774827B5BCB034B30C1C394AAAD8DE
:200240004E4FCA9C5BF36F2E68EE828F746F63A5781478C8840802C78CFAFFBE90EB6C50C3
:20026000A4F7A3F9BEF27871C600000A0B02090C0D0E08070304010000000000000000008A
:2002800000000000000000000000000000000000000000000012111000000000000000002B
:2002A00000000000000000000000000000000000002200250028002B002E0031003400020F
:2002C000010000050108010B0100002100240027002A002D003000330001010000040107CE
:2002E000010A0105050505070508080808020202020A0A080804040404010101010101016F
:20030000010303030303030303040707070C0C0C0C0C0C0C0C020202020606060606060619
:20032000060B0B0B0B0B0B0B0B010210202008081020401020408002010201080402010186
:2003400002040810204080804020100804020180040201804020100804020108040201010A
:2003600002040810204080010204081020408000FA8CEA8C11241FBECFEFD1E2DEBFCDBFD8
:2003800000E00CBF14E0A0E0B2E0E4EFF1E201E00BBF02C007900D92A63BB107D9F726E0F4
:2003A000A6EBB4E001C01D92A536B207E1F711E0C9EBD1E000E006C021970109802FFE01D0
:2003C0000E94598DC83BD10780E00807A9F70E94330B0C94E99014CECF92DF92EF92FF92EC
:2003E0000F931F93CF93DF936C017A018B01C0E0D0E0CE15DF0589F0D8016D918D01D60195
:20040000ED91FC910190F081E02DC6011995892B11F47E0102C02196ECCFC701DF91CF9149
:200420001F910F91FF90EF90DF90CF900895FC01918D828D981761F0828DDF01A80FB11D55
:200440005D968C91928D9F5F9F73928F90E008958FEF9FEF0895FC01918D828D981731F08C
:20046000828DE80FF11D858D90E008958FEF9FEF0895FC01918D228D892F90E0805C9F4FE4
:20048000821B91098F739927089583EE94E0F1DF21E0892B09F420E0822F0895FC01848D03
:2004A000DF01A80FB11DA35ABF4F2C91848D90E001968F739927848FA689B7892C93A089CB
:2004C000B1898C9180648C93938D848D981306C00288F389E02D80818F7D80830895EF92DF
:2004E000FF920F931F93CF93DF93EC0181E0888F9B8D8C8D981305C0E889F989808185FDB7
:2005000023C0F62E0B8D10E00F5F1F4F0F731127E02E8C8DE8120BC00FB607FCFACFE889C8
:20052000F989808185FFF5CFCE01B8DFF2CF8B8DFE01E80FF11DE35AFF4FF0820B8FEA89A3
:20054000FB898081806207C0EE89FF896083E889F98980818064808381E090E0DF91CF910F
:200560001F910F91FF90EF900895CF93DF93EC01888D8823C1F0EA89FB89808185FD05C00F
:20058000A889B9898C9186FD0EC00FB607FCF5CF808185FFF2CFA889B9898C9185FFEDCFD8
:2005A000CE017CDFE8CFDF91CF91089580E090E0892B19F06ADF811125C080E090E0892B1C
:2005C00041F080E090E0892B21F00E94000081111CC080E090E0892B41F080E090E0892B0C
:2005E00021F00E940000811113C080E090E0892BA1F080E090E0892B81F00E9400008111A5
:200600000AC008950E940000D8CF0E940000E1CF0E940000EACF0C94000008953FB7F894BE
:200620008091DB049091DC04A091DD04B091DE0426B5A89B05C02F3F19F00196A11DB11D17
:200640003FBFBA2FA92F982F8827820F911DA11DB11DBC01CD0142E0660F771F881F991F83
:200660004A95D1F708950E948D8F0F931F93CF93DF93EC0188819981009729F02A813B8129
:200680002617370788F48B016F5F7F4F0E94A98E009761F0998388831B830A832C813D81BD
:2006A000232B11F4FC01108281E001C080E0DF91CF911F910F910895CF93DF93EC0188814F
:2006C0009981009711F00E94118E198218821D821C821B821A82DF91CF910895EF92FF92FD
:2006E0000F931F93CF93DF93EC017B018A01BA01BCDF811103C0CE01DFDF07C01D830C83B0
:20070000B701888199810E94A38FCE01DF91CF911F910F91FF90EF900895FC012481358138
:20072000FB01448155812417350721F5FC0180819181FB0160817181009719F0611571052A
:20074000A1F46115710549F0232BB1F0FB01808190E09195819591090AC0009769F0232BA5
:2007600059F0FC01808190E002C00E949A8F21E0892B19F020E001C021E0822F0895EF92E6
:20078000FF920F931F93CF93DF93FC01248135816115710511F480E018C041155105A1F0E2
:2007A0007B01EC018A01020F131FB8015EDF882391F3288139818C819D81B701820F931F54
:2007C0000E94A38F1D830C8381E0DF91CF911F910F91FF90EF900895CF93DF93EC01FB012D
:2007E0004481558160817181CADF811102C0CE0163DFCE01DF91CF910895CF93DF93EC0180
:20080000FB018617970751F0608171816115710521F04481558162DF01C04EDFCE01DF9187
:20082000CF910895FC01808191810C94118EEF92FF920F931F93CF93DF93CDB7DEB7299759
:200840000FB6F894DEBF0FBECDBF8C01862FF80111821082138212821582148250E09E01CC
:200860002F5F3F4F7901B90190E00E944690F70101900020E9F73197AF014E195F09B701B8
:20088000C8012CDF29960FB6F894DEBF0FBECDBFDF91CF911F910F91FF90EF900895FC01B6
:2008A0001182108213821282158214826115710549F0FB0101900020E9F73197AF01461B32
:2008C000570B0CCF0895DC01ED91FC91DB0114964D915C9115976D917C910280F381E02D4B
:2008E00019941F920F920FB60F9211240BB60F922F933F934F935F936F937F938F939F932C
:20090000AF93BF93EF93FF9383EE94E0C7DDFF91EF91BF91AF919F918F917F916F915F91B6
:200920004F913F912F910F900BBE0F900FBE0F901F9018951F920F920FB60F9211240BB6CA
:200940000F922F938F939F93EF93FF93E091F304F091F4048081E091F904F091FA0482FD7E
:2009600012C090818091FC048F5F8F732091FD04821751F0E091FC04F0E0ED51FB4F958F1A
:200980008093FC0401C08081FF91EF919F918F912F910F900BBE0F900FBE0F901F90189593
:2009A000362F90E0FC01E759FD4F4491FC01E75DFC4F2491FC01ED51FD4F9491992309F45E
:2009C0006BC0442309F455C050E0FA013197E231F10508F04EC08827EE58FF4F8F4F0C94B0
:2009E000598D809180008F7707C0809180008F7D03C080918000877F809380003AC084B5F6
:200A00008F7702C084B58F7D84BD33C08091B0008F7703C08091B0008F7D8093B00029C092
:200A2000809190008F7707C0809190008F7D03C080919000877F809390001BC08091A00002
:200A40008F7707C08091A0008F7D03C08091A000877F8093A0000DC0809120018F7707C013
:200A6000809120018F7D03C080912001877F80932001E92FF0E0EE0FFF1FE155FD4FA5914E
:200A8000B4918FB7F894EC91311103C020952E2301C02E2B2C938FBF08958F929F92AF9260
:200AA000BF92CF92DF92EF92FF926B017C01B6DD4B015C01C114D104E104F104E9F0AEDDF4
:200AC000DC01CB0188199909AA09BB09883E9340A105B10578F321E0C21AD108E108F108BB
:200AE00088EE880E83E0981EA11CB11CC114D104E104F10421F7DECFFF90EF90DF90CF9022
:200B0000BF90AF909F908F9008951F920F920FB60F9211242F933F938F939F93AF93BF93F3
:200B20008091DF049091E004A091E104B091E2043091DA0423E0230F2D3720F40196A11DDE
:200B4000B11D05C026E8230F0296A11DB11D2093DA048093DF049093E004A093E104B093B5
:200B6000E2048091DB049091DC04A091DD04B091DE040196A11DB11D8093DB049093DC0451
:200B8000A093DD04B093DE04BF91AF919F918F913F912F910F900FBE0F901F9018952F9284
:200BA0003F924F925F926F927F928F929F92AF92BF92CF92DF92EF92FF920F931F93CF9302
:200BC000DF93CDB7DEB7C554D1090FB6F894DEBF0FBECDBF26969FAF8EAF2697FC01EC5B08
:200BE000FF4F808193E098272696AEADBFAD2697A90FB11D14966C938F5F8083803409F067
:200C0000B0C326962EAD3FAD26972B5B3F4FD9018D909D90AD90BC9088A299A2AAA2BBA252
:200C200026962EAD3FAD2697275B3F4FD9018D909D90AD90BC908CA29DA2AEA2BFA22696DD
:200C40002EAD3FAD2697235B3F4FD9018D909D90AD90BC9088A699A6AAA6BBA626962EADA2
:200C60003FAD26972F5A3F4FD9018D909D90AD90BC908CA69DA6AEA6BFA626962EAD3FAD56
:200C800026972B5A3F4FD9018D909D90AD90BC9088AA99AAAAAABBAA26962EAD3FAD269769
:200CA000275A3F4FD9018D909D90AD90BC908CAA9DAAAEAABFAA26962EAD3FAD2697235A7D
:200CC0003F4FD9018D909D90AD90BC9088AE99AEAAAEBBAE26962EAD3FAD26972F593F4F45
:200CE000D9018D909D90AD90BC908CAE9DAEAEAEBFAE09E611E01F8F0E8F2CA53DA54EA528
:200D00005FA52E8B3F8B488F598F48A559A56AA57BA54A8B5B8B6C8B7D8B6CA17DA18EA15F
:200D20009FA16E877F87888B998BC8A0D9A0EAA0FBA08CA99DA9AEA9BFA98A8F9B8FAC8F83
:200D4000BD8F88AC99ACAAACBBAC8A869B86AC86BD868CAD9DADAEADBFAD08A919A92AA9DB
:200D60003BA90D831E832F8338871AEF212E33243A9419862E8D3F8DF901459055906590A1
:200D800074900D811E812F81388545E1000F111F221F331F4A95D1F74D815E816F8178857C
:200DA000EBE07695679557954795EA95D1F7402B512B622B732B8D809E80AF80B884FAE1CF
:200DC000880C991CAA1CBB1CFA95D1F70D811E812F813885E6E03695279517950795EA9528
:200DE000D1F7082919292A293B2904271527262737274D815E816F817885F9E17695679574
:200E000057954795FA95D1F78D809E80AF80B884E7E0880C991CAA1CBB1CEA95D1F7842A7B
:200E2000952AA62AB72A80269126A226B3264A855B856C857D850A8D1B8D2C8D3D8D402779
:200E40005127622773270D811E812F81388540235123622373230A851B852C853D85402762
:200E6000512762277327840E951EA61EB71E480C591C6A1C7B1C29852F702696EEADFFADC3
:200E8000269714E0219FE00DF11D112484809580A680B780480C591C6A1C7B1C840D951D12
:200EA000A61DB71D46015701F3E1880C991CAA1CBB1CFA95D1F7B701A6011DE07695679588
:200EC000579547951A95D1F72A013B01482859286A287B28970186014EE1000F111F221F78
:200EE000331F4A95D1F7B701A601E2E07695679557954795EA95D1F7402B512B622B732BB0
:200F00005301420184269526A626B72697018601F6E13695279517950795FA95D1F7B70158
:200F2000A601EAE0440F551F661F771FEA95D1F7402B512B622B732B482559256A257B25EB
:200F40004A885B886C887D888E849F84A888B988482859286A287B284C205D206E207F2001
:200F60000A891B892C893D89082119212A213B210429152926293729040F151F261F371FB9
:200F80004E895F89688D798D480F591F6A1F7B1F49835A836B837C8348015901880E991E1F
:200FA000AA1EBB1E24968CAE9DAEAEAEBFAE249709850F5F0987003409F41BC11985103155
:200FC00008F4D7C0812F8F7026962EAD3FAD269744E0849F200D311D11243F8B2E8BF10123
:200FE000EF70FF273196EE0FFF1FEE0FFF1F2696AEADBFAD2697AE0FBF1FF901048115817F
:20100000268137818D919D910D90BC91A02D28013901480E591E6A1E7B1EF1013596EF7001
:20102000FF273196EE0FFF1FEE0FFF1F26968EAC9FAC2697E80DF91D00811181228133811A
:20104000B901A8018DE0440F551F661F771F8A95D1F7D901C801E3E1B695A79597958795C1
:20106000EA95D1F7482B592B6A2B7B2BD901C801FFE0880F991FAA1FBB1FFA95D1F74801E3
:201080005901E1E1B694A79497948794EA95D1F7882A992AAA2ABB2A84269526A626B726E6
:2010A000FAE03695279517950795FA95D1F7082519252A253B25040D151D261D371DF1014A
:2010C0003897EF70FF273196EE0FFF1FEE0FFF1F2696AEACBFAC2697EA0DFB1D40815181DF
:2010E000628173812A013B01BEE0440C551C661C771CBA95D1F7DB01CA01E2E1B695A79536
:2011000097958795EA95D1F7482A592A6A2A7B2ADB01CA01F7E0B695A79597958795FA9536
:20112000D1F74A015B01E9E1880C991CAA1CBB1CEA95D1F7882A992AAA2ABB2A84249524BA
:20114000A624B724F3E07695679557954795FA95D1F784269526A626B726800E911EA21EE6
:20116000B31EAE89BF8914968D929D92AD92BC9217970E8D1F8D0C5F1F4F1F8F0E8F1FEF73
:20118000211A310A2A893B894C895D892E8B3F8B488F598F4E855F85688979894A8B5B8B00
:2011A0006C8B7D8BCE86DF86E88AF98A2496CCACDDACEEACFFAC24978A859B85AC85BD8525
:2011C0008A8C9B8CAC8CBD8C8A869B86AC86BD860D811E812F8138850A8F1B8F2C8F3D8F47
:2011E00029813A814B815C812D833E834F835887C1CD26966EAD7FAD26976B5B7F4FD50107
:20120000C40128A139A14AA15BA1820F931FA41FB51FFB0180839183A283B3832696EEADE0
:20122000FFAD2697E75BFF4F8CA09DA0AEA0BFA0C80CD91CEA1CFB1CC082D182E282F3824B
:2012400026966EAD7FAD2697635B7F4F8E859F85A889B98908A519A52AA53BA5800F911F3F
:20126000A21FB31FFB0180839183A283B38326966EAD7FAD26976F5A7F4F8A899B89AC89AA
:20128000BD898CA49DA4AEA4BFA4880D991DAA1DBB1DFB0180839183A283B38326966EADB3
:2012A0007FAD26976B5A7F4F89819A81AB81BC8188A899A8AAA8BBA8880D991DAA1DBB1D14
:2012C000FB0180839183A283B38326966EAD7FAD2697675A7F4F8D819E81AF81B8858CA883
:2012E0009DA8AEA8BFA8880D991DAA1DBB1DFB0180839183A283B38326966EAD7FAD2697D4
:20130000635A7F4F8A8D9B8DAC8DBD8D88AC99ACAAACBBAC880D991DAA1DBB1DFB01808361
:201320009183A283B38326966EAD7FAD26976F597F4F8A859B85AC85BD858CAC9DACAEAC6B
:20134000BFAC880D991DAA1DBB1DFB0180839183A283B3832696EEADFFAD2697EC5BFF4F75
:201360001082CB5BDF4F0FB6F894DEBF0FBECDBFDF91CF911F910F91FF90EF90DF90CF9044
:20138000BF90AF909F908F907F906F905F904F903F902F900895262FFC01EB59FF4F4081C5
:2013A0005181628173814F5F5F4F6F4F7F4F4083518362837383622FF2CBDC01FB01808102
:2013C000869586958C9380818370918192959F7020E1829F900D112411969C9311979181F8
:2013E0009F70990F990F22812295269526952370920F12969C93129782818F7313968C933D
:2014000008952FB7F8948091DF049091E004A091E104B091E2042FBF8093EB049093EC0484
:20142000A093ED04B093EE04E091E304F091E4040680F781E02D83EE94E0199597FF26C078
:201440002FB7F8948091DF049091E004A091E104B091E2042FBF4091EB045091EC04609174
:20146000ED047091EE04841B950BA60BB70B4091E7045091E8046091E9047091EA048417E5
:201480009507A607B70780F28FEF9FEF089590E0FC01E75DFC4F2491FC01ED51FD4F8491DD
:2014A000882399F090E0880F991FFC01E753FD4FA591B491FC01E155FD4F859194918FB73B
:2014C000F894EC91E22BEC938FBF0895009769F0FC0101900020E9F73197AF01481B590BCF
:2014E000BC0183EE94E00C94EC0180E090E00895CF93DF93EBDFEC0181E094E0E7DF8C0F8F
:201500009D1FDF91CF910895CF93DF93BC0183EE94E0D9D9EC0181E094E0D8DF8C0F9D1FAA
:20152000DF91CF91089560E880E895E038DB8091C40560E08833C1F780E895E030DB60E051
:2015400080E895E02CDB60E080E895E028DB8091E5059091E605A091E705B091E805BC0178
:20156000CD012DE196958795779567952A95D1F780E895E014DB8091E5059091E605A091B5
:20158000E705B091E805BC01CD0135E196958795779567953A95D1F780E895E000DB8091E1
:2015A000E5059091E605A091E705B091E805BC01CD014DE096958795779567954A95D1F73C
:2015C00080E895E0ECDA8091E5059091E605A091E705B091E805BC01CD0155E0969587950F
:2015E000779567955A95D1F780E895E0D8DA6091E505660F660F660F80E895E0D0DAE5EC0B
:20160000F5E060817181828193810E94618D619371938193919385E0E53EF80791F785ECCB
:2016200095E008950F931F93CF93DF931F921F92CDB7DEB78C0167E372E031D9E2DE97FD6E
:201640000AC089831A8241E050E0BE016F5F7F4FC80195D8F3CFC8010F900F90DF91CF919D
:201660001F910F910895CF93DF93CDB7DEB7E7970FB6F894DEBF0FBECDBF789484B58260A4
:2016800084BD84B5816084BD85B5826085BD85B5816085BD80916E00816080936E00109270
:2016A000810080918100826080938100809181008160809381008091800081608093800095
:2016C0008091B10084608093B1008091B00081608093B00080919100826080939100809102
:2016E0009100816080939100809190008160809390008091A10082608093A1008091A100B5
:2017000081608093A1008091A00081608093A0008091210182608093210180912101816091
:20172000809321018091200181608093200180917A00846080937A0080917A0082608093B1
:201740007A0080917A00816080937A0080917A00806880937A001092C100E091F304F091CA
:20176000F40482E08083E091EF04F091F0041082E091F104F091F2048FEC80831092FB04A5
:20178000E091F704F091F80486E08083E091F504F091F604808180618083E091F504F09142
:2017A000F604808188608083E091F504F091F604808180688083E091F504F091F60480818C
:2017C0008F7D80838EE163DE84E361DE8BE15FDE8CE25DDE81E090E09093D9048093D80492
:2017E0009E012B5F3F4F3DAB2CAB5AE0452E512C612C712C8091D8049091D90481309105ED
:2018000009F016C133E0232E312C8E010F5F1F4F83EE94E00E9439021816190614F00C9419
:20182000E68C8DB69EB6CE018296FCDEBE016E5D7F4F83EE94E047D8CEA0DFA076013FEFF0
:20184000E31AF30A8DB79EB78E199F090FB6F8949EBF0FBE8DBFEDB7FEB731965F01E1146A
:20186000F10479F0309769F0C114D10449F06AA17BA1A601CF010E94AA8FF501EC0DFD1D85
:201880001082F2E0EF0EF11CC701B1010E94468D9701281B390BC901B1010E94468D660F66
:2018A000771F660F771F8DB79EB7861B970B0FB6F8949EBF0FBE8DBFEDB7FEB731967F0144
:2018C000A501A12CB12C80E090E0EFEFCE16DE06A1F19C012F5F3F4FFA016191AF01E8E290
:2018E000F0E0EC0FFD1FE80FF91F608323303105F9F4BE01685D7F4FC8014EAB5FAB5DDD41
:20190000D801C7018A0D9B1D5FA94EA9ED91F0E0E85FFE4F2491FC012193CF012CA93DA905
:20192000A217B30799F734E0A30EB11C20E030E081E0C81AD108C901C8CF6C010097D1F1BF
:20194000833091054CF4E8E2F0E0EC0FFD1FE80FF91F10820196F4CFBE01685D7F4FC80137
:201960002CDDC7018A0D9B1DD801ED91F0E0E85FFE4F2491FC012193CF019D01201B310B41
:20198000C216D30694F7FFEFAF1ABF0AAC0CBD1CF701EA0DFB1DCE18DF08CA18DB085F0101
:2019A000AE18BF08C6018E0F9F1F03971CF42DE32193F5CFF701EA0DFB1D108284E292E0D5
:2019C00085DDC70195DDB701C8010E944F0465E576E0C8010E948D038823B9F088E392E029
:2019E00087DD82E090E09093D9048093D804C8010E941204CE0182960E9412040FB6F89451
:201A00009EBE0FBE8DBE0C94E68C89E793E070DD85E592E05BDDC8010E941204CE01829694
:201A20000E9412040FB6F8949EBE0FBE8DBEF0CE8230910511F00C947B8B8AE792E058DD64
:201A400068EB7BE080E090E028D883EE94E00E9439021816190614F40C94C68A89EA92E01C
:201A600047DD8091D6049091D704009711F00C94F94B83EC92E03CDD61E084E30E94D004C7
:201A800064E670E080E090E008D860E084E30E94D00464E670E080E090E00E944D0560E041
:201AA0008EE10E94D00460E084E30E94D00468EE73E080E090E00E944D0561E084E30E946D
:201AC000D00464E670E080E090E00E944D0560E084E30E94D00464E670E080E090E00E94AB
:201AE0004D0560E08EE10E94D00460E084E30E94D00468EE73E080E090E00E944D0561E0A4
:201B000084E30E94D00464E670E080E090E00E944D0560E084E30E94D00464E670E080E073
:201B200090E00E944D0560E08EE10E94D00460E084E30E94D00468EE73E080E090E00E94E4
:201B40004D0561E084E30E94D00464E670E080E090E00E944D0560E084E30E94D00464E650
:201B600070E080E090E00E944D0560E08EE10E94D00460E084E30E94D00468EE73E080E006
:201B800090E00E944D0561E084E30E94D00464E670E080E090E00E944D0560E084E30E941C
:201BA000D00464E670E080E090E00E944D0560E08EE10E94D00460E084E30E94D00468EE5B
:201BC00073E080E090E00E944D0561E084E30E94D00464E670E080E090E00E944D0560E032
:201BE00084E30E94D00464E670E080E090E00E944D0560E08EE10E94D00460E084E30E943C
:201C0000D00468EE73E080E090E00E944D0561E084E30E94D00464E670E080E090E00E9459
:201C20004D0560E084E30E94D00464E670E080E090E00E944D0560E08EE10E94D00460E072
:201C400084E30E94D00468EE73E080E090E00E944D0561E084E30E94D00464E670E080E022
:201C600090E00E944D0560E084E30E94D00464E670E080E090E00E944D0560E08EE10E9434
:201C8000D00460E084E30E94D00468EE73E080E090E00E944D0561E084E30E94D00464E67E
:201CA00070E080E090E00E944D0560E084E30E94D00464E670E080E090E00E944D0560E055
:201CC0008EE10E94D00460E084E30E94D00468EE73E080E090E00E944D0561E084E30E944B
:201CE000D00464E670E080E090E00E944D0560E084E30E94D00464E670E080E090E00E9489
:201D00004D0560E08EE10E94D00460E084E30E94D00468EE73E080E090E00E944D0561E081
:201D20008EE10E94D00464E670E080E090E00E944D0560E08EE10E94D00464E670E080E041
:201D400090E00E944D0561E08EE10E94D00464E670E080E090E00E944D0560E08EE10E944A
:201D6000D00464E670E080E090E00E944D0561E084E30E94D00464E670E080E090E00E9407
:201D80004D0560E084E30E94D00464E670E080E090E00E944D0561E08EE10E94D00464E606
:201DA00070E080E090E00E944D0560E08EE10E94D00464E670E080E090E00E944D0561E04B
:201DC0008EE10E94D00464E670E080E090E00E944D0560E08EE10E94D00464E670E080E0A1
:201DE00090E00E944D0560E08EE10E94D00460E084E30E94D00468EE73E080E090E00E9422
:201E00004D0561E08EE10E94D00464E670E080E090E00E944D0560E08EE10E94D00464E67D
:201E200070E080E090E00E944D0561E084E30E94D00464E670E080E090E00E944D0560E0D2
:201E400084E30E94D00464E670E080E090E00E944D0561E08EE10E94D00464E670E080E027
:201E600090E00E944D0560E08EE10E94D00464E670E080E090E00E944D0560E08EE10E942A
:201E8000D00460E084E30E94D00468EE73E080E090E00E944D0561E084E30E94D00464E67C
:201EA00070E080E090E00E944D0560E084E30E94D00464E670E080E090E00E944D0560E053
:201EC0008EE10E94D00460E084E30E94D00468EE73E080E090E00E944D0561E08EE10E9441
:201EE000D00464E670E080E090E00E944D0560E08EE10E94D00464E670E080E090E00E947F
:201F00004D0561E084E30E94D00464E670E080E090E00E944D0560E084E30E94D00464E68C
:201F200070E080E090E00E944D0561E08EE10E94D00464E670E080E090E00E944D0560E0C9
:201F40008EE10E94D00464E670E080E090E00E944D0560E08EE10E94D00460E084E30E94D0
:201F6000D00468EE73E080E090E00E944D0561E084E30E94D00464E670E080E090E00E94F6
:201F80004D0560E084E30E94D00464E670E080E090E00E944D0560E08EE10E94D00460E00F
:201FA00084E30E94D00468EE73E080E090E00E944D0561E084E30E94D00464E670E080E0BF
:201FC00090E00E944D0560E084E30E94D00464E670E080E090E00E944D0560E08EE10E94D1
:201FE000D00460E084E30E94D00468EE73E080E090E00E944D0561E084E30E94D00464E61B
:2020000070E080E090E00E944D0560E084E30E94D00464E670E080E090E00E944D0560E0F1
:202020008EE10E94D00460E084E30E94D00468EE73E080E090E00E944D0561E08EE10E94DF
:20204000D00464E670E080E090E00E944D0560E08EE10E94D00464E670E080E090E00E941D
:202060004D0561E084E30E94D00464E670E080E090E00E944D0560E084E30E94D00464E62B
:2020800070E080E090E00E944D0561E08EE10E94D00464E670E080E090E00E944D0560E068
:2020A0008EE10E94D00464E670E080E090E00E944D0560E08EE10E94D00460E084E30E946F
:2020C000D00468EE73E080E090E00E944D0561E084E30E94D00464E670E080E090E00E9495
:2020E0004D0560E084E30E94D00464E670E080E090E00E944D0560E08EE10E94D00460E0AE
:2021000084E30E94D00468EE73E080E090E00E944D0561E084E30E94D00464E670E080E05D
:2021200090E00E944D0560E084E30E94D00464E670E080E090E00E944D0560E08EE10E946F
:20214000D00460E084E30E94D00468EE73E080E090E00E944D0561E084E30E94D00464E6B9
:2021600070E080E090E00E944D0560E084E30E94D00464E670E080E090E00E944D0560E090
:202180008EE10E94D00460E084E30E94D00468EE73E080E090E00E944D0561E084E30E9486
:2021A000D00464E670E080E090E00E944D0560E084E30E94D00464E670E080E090E00E94C4
:2021C0004D0560E08EE10E94D00460E084E30E94D00468EE73E080E090E00E944D0561E0BD
:2021E00084E30E94D00464E670E080E090E00E944D0560E084E30E94D00464E670E080E08D
:2022000090E00E944D0560E08EE10E94D00460E084E30E94D00468EE73E080E090E00E94FD
:202220004D0561E084E30E94D00464E670E080E090E00E944D0560E084E30E94D00464E669
:2022400070E080E090E00E944D0560E08EE10E94D00460E084E30E94D00468EE73E080E01F
:2022600090E00E944D0561E084E30E94D00464E670E080E090E00E944D0560E084E30E9435
:20228000D00464E670E080E090E00E944D0560E08EE10E94D00460E084E30E94D00468EE74
:2022A00073E080E090E00E944D0561E08EE10E94D00464E670E080E090E00E944D0560E043
:2022C0008EE10E94D00464E670E080E090E00E944D0561E084E30E94D00464E670E080E0A3
:2022E00090E00E944D0560E084E30E94D00464E670E080E090E00E944D0561E08EE10E94AD
:20230000D00464E670E080E090E00E944D0560E08EE10E94D00464E670E080E090E00E945A
:202320004D0560E08EE10E94D00460E084E30E94D00468EE73E080E090E00E944D0561E05B
:2023400084E30E94D00464E670E080E090E00E944D0560E084E30E94D00464E670E080E02B
:2023600090E00E944D0560E08EE10E94D00460E084E30E94D00468EE73E080E090E00E949C
:202380004D0561E084E30E94D00464E670E080E090E00E944D0560E084E30E94D00464E608
:2023A00070E080E090E00E944D0560E08EE10E94D00460E084E30E94D00468EE73E080E0BE
:2023C00090E00E944D0561E084E30E94D00464E670E080E090E00E944D0560E084E30E94D4
:2023E000D00464E670E080E090E00E944D0560E08EE10E94D00460E084E30E94D00468EE13
:2024000073E080E090E00E944D0561E084E30E94D00464E670E080E090E00E944D0560E0E9
:2024200084E30E94D00464E670E080E090E00E944D0560E08EE10E94D00460E084E30E94F3
:20244000D00468EE73E080E090E00E944D0561E084E30E94D00464E670E080E090E00E9411
:202460004D0560E084E30E94D00464E670E080E090E00E944D0560E08EE10E94D00460E02A
:2024800084E30E94D00468EE73E080E090E00E944D0561E084E30E94D00464E670E080E0DA
:2024A00090E00E944D0560E084E30E94D00464E670E080E090E00E944D0560E08EE10E94EC
:2024C000D00460E084E30E94D00468EE73E080E090E00E944D0561E084E30E94D00464E636
:2024E00070E080E090E00E944D0560E084E30E94D00464E670E080E090E00E944D0560E00D
:202500008EE10E94D00460E084E30E94D00468EE73E080E090E00E944D0561E084E30E9402
:20252000D00464E670E080E090E00E944D0560E084E30E94D00464E670E080E090E00E9440
:202540004D0560E08EE10E94D00460E084E30E94D00468EE73E080E090E00E944D0561E039
:2025600084E30E94D00464E670E080E090E00E944D0560E084E30E94D00464E670E080E009
:2025800090E00E944D0560E08EE10E94D00460E084E30E94D00468EE73E080E090E00E947A
:2025A0004D0561E084E30E94D00464E670E080E090E00E944D0560E084E30E94D00464E6E6
:2025C00070E080E090E00E944D0560E08EE10E94D00460E084E30E94D00468EE73E080E09C
:2025E00090E00E944D0561E08EE10E94D00464E670E080E090E00E944D0560E08EE10E94A2
:20260000D00464E670E080E090E00E944D0561E084E30E94D00464E670E080E090E00E945E
:202620004D0560E084E30E94D00464E670E080E090E00E944D0561E084E30E94D00464E665
:2026400070E080E090E00E944D0560E084E30E94D00464E670E080E090E00E944D0560E0AB
:202660008EE10E94D00460E084E30E94D00468EE73E080E090E00E944D0561E08EE10E9499
:20268000D00464E670E080E090E00E944D0560E08EE10E94D00464E670E080E090E00E94D7
:2026A0004D0561E084E30E94D00464E670E080E090E00E944D0560E084E30E94D00464E6E5
:2026C00070E080E090E00E944D0561E084E30E94D00464E670E080E090E00E944D0560E02A
:2026E00084E30E94D00464E670E080E090E00E944D0560E08EE10E94D00460E084E30E9431
:20270000D00468EE73E080E090E00E944D0561E08EE10E94D00464E670E080E090E00E9446
:202720004D0560E08EE10E94D00464E670E080E090E00E944D0561E084E30E94D00464E65C
:2027400070E080E090E00E944D0560E084E30E94D00464E670E080E090E00E944D0561E0A9
:2027600084E30E94D00464E670E080E090E00E944D0560E084E30E94D00464E670E080E007
:2027800090E00E944D0560E08EE10E94D00460E084E30E94D00468EE73E080E090E00E9478
:2027A0004D0561E08EE10E94D00464E670E080E090E00E944D0560E08EE10E94D00464E6D4
:2027C00070E080E090E00E944D0561E084E30E94D00464E670E080E090E00E944D0560E029
:2027E00084E30E94D00464E670E080E090E00E944D0561E084E30E94D00464E670E080E086
:2028000090E00E944D0560E084E30E94D00464E670E080E090E00E944D0560E08EE10E9488
:20282000D00460E084E30E94D00468EE73E080E090E00E944D0561E08EE10E94D00464E6CA
:2028400070E080E090E00E944D0560E08EE10E94D00464E670E080E090E00E944D0561E0A0
:202860008EE10E94D00464E670E080E090E00E944D0560E08EE10E94D00464E670E080E0F6
:2028800090E00E944D0561E08EE10E94D00464E670E080E090E00E944D0560E08EE10E94FF
:2028A000D00464E670E080E090E00E944D0560E08EE10E94D00460E084E30E94D00468EE4E
:2028C00073E080E090E00E944D0561E08EE10E94D00464E670E080E090E00E944D0560E01D
:2028E0008EE10E94D00464E670E080E090E00E944D0561E08EE10E94D00464E670E080E075
:2029000090E00E944D0560E08EE10E94D00464E670E080E090E00E944D0561E084E30E9486
:20292000D00464E670E080E090E00E944D0560E084E30E94D00464E670E080E090E00E943C
:202940004D0561E084E30E94D00464E670E080E090E00E944D0560E084E30E94D00464E642
:2029600070E080E090E00E944D0560E08EE10E94D00460E084E30E94D00468EE73E080E0F8
:2029800090E00E944D0561E08EE10E94D00464E670E080E090E00E944D0560E08EE10E94FE
:2029A000D00464E670E080E090E00E944D0561E084E30E94D00464E670E080E090E00E94BB
:2029C0004D0560E084E30E94D00464E670E080E090E00E944D0561E08EE10E94D00464E6BA
:2029E00070E080E090E00E944D0560E08EE10E94D00464E670E080E090E00E944D0560E000
:202A00008EE10E94D00460E084E30E94D00468EE73E080E090E00E944D0561E08EE10E94F5
:202A2000D00464E670E080E090E00E944D0560E08EE10E94D00464E670E080E090E00E9433
:202A40004D0561E084E30E94D00464E670E080E090E00E944D0560E084E30E94D00464E641
:202A600070E080E090E00E944D0561E08EE10E94D00464E670E080E090E00E944D0560E07E
:202A80008EE10E94D00464E670E080E090E00E944D0560E08EE10E94D00460E084E30E9485
:202AA000D00468EE73E080E090E00E944D0561E08EE10E94D00464E670E080E090E00E94A3
:202AC0004D0560E08EE10E94D00464E670E080E090E00E944D0561E084E30E94D00464E6B9
:202AE00070E080E090E00E944D0560E084E30E94D00464E670E080E090E00E944D0561E006
:202B00008EE10E94D00464E670E080E090E00E944D0560E08EE10E94D00464E670E080E053
:202B200090E00E944D0560E08EE10E94D00460E084E30E94D00468EE73E080E090E00E94D4
:202B40004D0561E08EE10E94D00464E670E080E090E00E944D0560E08EE10E94D00464E630
:202B600070E080E090E00E944D0561E08EE10E94D00464E670E080E090E00E944D0560E07D
:202B80008EE10E94D00464E670E080E090E00E944D0561E08EE10E94D00464E670E080E0D2
:202BA00090E00E944D0560E08EE10E94D00464E670E080E090E00E944D0560E08EE10E94DD
:202BC000D00460E084E30E94D00468EE73E080E090E00E944D0561E08EE10E94D00464E627
:202BE00070E080E090E00E944D0560E08EE10E94D00464E670E080E090E00E944D0561E0FD
:202C00008EE10E94D00464E670E080E090E00E944D0560E08EE10E94D00464E670E080E052
:202C200090E00E944D0561E08EE10E94D00464E670E080E090E00E944D0560E08EE10E945B
:202C4000D00464E670E080E090E00E944D0560E08EE10E94D00460E084E30E94D00468EEAA
:202C600073E080E090E00E944D0561E08EE10E94D00464E670E080E090E00E944D0560E079
:202C80008EE10E94D00464E670E080E090E00E944D0561E08EE10E94D00464E670E080E0D1
:202CA00090E00E944D0560E08EE10E94D00464E670E080E090E00E944D0561E08EE10E94DB
:202CC000D00464E670E080E090E00E944D0560E08EE10E94D00464E670E080E090E00E9491
:202CE0004D0560E08EE10E94D00460E084E30E94D00468EE73E080E090E00E944D0561E092
:202D00008EE10E94D00464E670E080E090E00E944D0560E08EE10E94D00464E670E080E051
:202D200090E00E944D0561E08EE10E94D00464E670E080E090E00E944D0560E08EE10E945A
:202D4000D00464E670E080E090E00E944D0561E084E30E94D00464E670E080E090E00E9417
:202D60004D0560E084E30E94D00464E670E080E090E00E944D0561E08EE10E94D00464E616
:202D800070E080E090E00E944D0560E08EE10E94D00464E670E080E090E00E944D0561E05B
:202DA00084E30E94D00464E670E080E090E00E944D0560E084E30E94D00464E670E080E0C1
:202DC00090E00E944D0561E08EE10E94D00464E670E080E090E00E944D0560E08EE10E94BA
:202DE000D00464E670E080E090E00E944D0560E08EE10E94D00460E084E30E94D00468EE09
:202E000073E080E090E00E944D0560E08EE10E94D00460E084E30E94D00468EE73E080E050
:202E200090E00E944D0561E08EE10E94D00464E670E080E090E00E944D0560E08EE10E9459
:202E4000D00464E670E080E090E00E944D0561E084E30E94D00464E670E080E090E00E9416
:202E60004D0560E084E30E94D00464E670E080E090E00E944D0561E08EE10E94D00464E615
:202E800070E080E090E00E944D0560E08EE10E94D00464E670E080E090E00E944D0560E05B
:202EA0008EE10E94D00460E084E30E94D00468EE73E080E090E00E944D0561E084E30E9459
:202EC000D00464E670E080E090E00E944D0560E084E30E94D00464E670E080E090E00E9497
:202EE0004D0560E08EE10E94D00460E084E30E94D00468EE73E080E090E00E944D0561E090
:202F000084E30E94D00464E670E080E090E00E944D0560E084E30E94D00464E670E080E05F
:202F200090E00E944D0560E08EE10E94D00460E084E30E94D00468EE73E080E090E00E94D0
:202F40004D0561E084E30E94D00464E670E080E090E00E944D0560E084E30E94D00464E63C
:202F600070E080E090E00E944D0560E08EE10E94D00460E084E30E94D00468EE73E080E0F2
:202F800090E00E944D0561E084E30E94D00464E670E080E090E00E944D0560E084E30E9408
:202FA000D00464E670E080E090E00E944D0560E08EE10E94D00460E084E30E94D00468EE47
:202FC00073E080E090E00E944D0561E084E30E94D00464E670E080E090E00E944D0560E01E
:202FE00084E30E94D00464E670E080E090E00E944D0560E08EE10E94D00460E084E30E9428
:20300000D00468EE73E080E090E00E944D0561E084E30E94D00464E670E080E090E00E9445
:203020004D0560E084E30E94D00464E670E080E090E00E944D0560E08EE10E94D00460E05E
:2030400084E30E94D00468EE73E080E090E00E944D0561E084E30E94D00464E670E080E00E
:2030600090E00E944D0560E084E30E94D00464E670E080E090E00E944D0560E08EE10E9420
:20308000D00460E084E30E94D00468EE73E080E090E00E944D0561E084E30E94D00464E66A
:2030A00070E080E090E00E944D0560E084E30E94D00464E670E080E090E00E944D0560E041
:2030C0008EE10E94D00460E084E30E94D00468EE73E080E090E00E944D0561E084E30E9437
:2030E000D00464E670E080E090E00E944D0560E084E30E94D00464E670E080E090E00E9475
:203100004D0560E08EE10E94D00460E084E30E94D00468EE73E080E090E00E944D0561E06D
:2031200084E30E94D00464E670E080E090E00E944D0560E084E30E94D00464E670E080E03D
:2031400090E00E944D0560E08EE10E94D00460E084E30E94D00468EE73E080E090E00E94AE
:203160004D0561E084E30E94D00464E670E080E090E00E944D0560E084E30E94D00464E61A
:2031800070E080E090E00E944D0560E08EE10E94D00460E084E30E94D00468EE73E080E0D0
:2031A00090E00E944D0561E084E30E94D00464E670E080E090E00E944D0560E084E30E94E6
:2031C000D00464E670E080E090E00E944D0560E08EE10E94D00460E084E30E94D00468EE25
:2031E00073E080E090E00E944D0561E084E30E94D00464E670E080E090E00E944D0560E0FC
:2032000084E30E94D00464E670E080E090E00E944D0560E08EE10E94D00460E084E30E9405
:20322000D00468EE73E080E090E00E944D0561E084E30E94D00464E670E080E090E00E9423
:203240004D0560E084E30E94D00464E670E080E090E00E944D0560E08EE10E94D00460E03C
:2032600084E30E94D00468EE73E080E090E00E944D0561E08EE10E94D00464E670E080E0E4
:2032800090E00E944D0560E08EE10E94D00464E670E080E090E00E944D0561E08EE10E94F5
:2032A000D00464E670E080E090E00E944D0560E08EE10E94D00464E670E080E090E00E94AB
:2032C0004D0561E084E30E94D00464E670E080E090E00E944D0560E084E30E94D00464E6B9
:2032E00070E080E090E00E944D0561E08EE10E94D00464E670E080E090E00E944D0560E0F6
:203300008EE10E94D00464E670E080E090E00E944D0561E084E30E94D00464E670E080E052
:2033200090E00E944D0560E084E30E94D00464E670E080E090E00E944D0561E08EE10E945C
:20334000D00464E670E080E090E00E944D0560E08EE10E94D00464E670E080E090E00E940A
:203360004D0560E08EE10E94D00460E084E30E94D00468EE73E080E090E00E944D0560E00C
:203380008EE10E94D00460E084E30E94D00468EE73E080E090E00E944D0561E08EE10E946C
:2033A000D00464E670E080E090E00E944D0560E08EE10E94D00464E670E080E090E00E94AA
:2033C0004D0561E08EE10E94D00464E670E080E090E00E944D0560E08EE10E94D00464E6A8
:2033E00070E080E090E00E944D0561E08EE10E94D00464E670E080E090E00E944D0560E0F5
:203400008EE10E94D00464E670E080E090E00E944D0560E08EE10E94D00460E084E30E94FB
:20342000D00468EE73E080E090E00E944D0561E08EE10E94D00464E670E080E090E00E9419
:203440004D0560E08EE10E94D00464E670E080E090E00E944D0561E08EE10E94D00464E627
:2034600070E080E090E00E944D0560E08EE10E94D00464E670E080E090E00E944D0561E074
:203480008EE10E94D00464E670E080E090E00E944D0560E08EE10E94D00464E670E080E0CA
:2034A00090E00E944D0560E08EE10E94D00460E084E30E94D00468EE73E080E090E00E944B
:2034C0004D0561E08EE10E94D00464E670E080E090E00E944D0560E08EE10E94D00464E6A7
:2034E00070E080E090E00E944D0561E08EE10E94D00464E670E080E090E00E944D0560E0F4
:203500008EE10E94D00464E670E080E090E00E944D0561E08EE10E94D00464E670E080E048
:2035200090E00E944D0560E08EE10E94D00464E670E080E090E00E944D0560E08EE10E9453
:20354000D00460E084E30E94D00468EE73E080E090E00E944D0561E08EE10E94D00464E69D
:2035600070E080E090E00E944D0560E08EE10E94D00464E670E080E090E00E944D0561E073
:203580008EE10E94D00464E670E080E090E00E944D0560E08EE10E94D00464E670E080E0C9
:2035A00090E00E944D0561E084E30E94D00464E670E080E090E00E944D0560E084E30E94E2
:2035C000D00464E670E080E090E00E944D0561E08EE10E94D00464E670E080E090E00E9487
:2035E0004D0560E08EE10E94D00464E670E080E090E00E944D0561E084E30E94D00464E68E
:2036000070E080E090E00E944D0560E084E30E94D00464E670E080E090E00E944D0561E0DA
:203620008EE10E94D00464E670E080E090E00E944D0560E08EE10E94D00464E670E080E028
:2036400090E00E944D0560E08EE10E94D00460E084E30E94D00468EE73E080E090E00E94A9
:203660004D0560E08EE10E94D00460E084E30E94D00468EE73E080E090E00E944D0561E008
:2036800084E30E94D00464E670E080E090E00E944D0560E084E30E94D00464E670E080E0D8
:2036A00090E00E944D0560E08EE10E94D00460E084E30E94D00468EE73E080E090E00E9449
:2036C0004D0561E084E30E94D00464E670E080E090E00E944D0560E084E30E94D00464E6B5
:2036E00070E080E090E00E944D0560E08EE10E94D00460E084E30E94D00468EE73E080E06B
:2037000090E00E944D0561E084E30E94D00464E670E080E090E00E944D0560E084E30E9480
:20372000D00464E670E080E090E00E944D0560E08EE10E94D00460E084E30E94D00468EEBF
:2037400073E080E090E00E944D0561E084E30E94D00464E670E080E090E00E944D0560E096
:2037600084E30E94D00464E670E080E090E00E944D0560E08EE10E94D00460E084E30E94A0
:20378000D00468EE73E080E090E00E944D0561E08EE10E94D00464E670E080E090E00E94B6
:2037A0004D0560E08EE10E94D00464E670E080E090E00E944D0561E08EE10E94D00464E6C4
:2037C00070E080E090E00E944D0560E08EE10E94D00464E670E080E090E00E944D0561E011
:2037E00084E30E94D00464E670E080E090E00E944D0560E084E30E94D00464E670E080E077
:2038000090E00E944D0561E08EE10E94D00464E670E080E090E00E944D0560E08EE10E946F
:20382000D00464E670E080E090E00E944D0561E084E30E94D00464E670E080E090E00E942C
:203840004D0560E084E30E94D00464E670E080E090E00E944D0561E08EE10E94D00464E62B
:2038600070E080E090E00E944D0560E08EE10E94D00464E670E080E090E00E944D0560E071
:203880008EE10E94D00460E084E30E94D00468EE73E080E090E00E944D0560E08EE10E9468
:2038A000D00460E084E30E94D00468EE73E080E090E00E944D0561E08EE10E94D00464E63A
:2038C00070E080E090E00E944D0560E08EE10E94D00464E670E080E090E00E944D0561E010
:2038E0008EE10E94D00464E670E080E090E00E944D0560E08EE10E94D00464E670E080E066
:2039000090E00E944D0561E084E30E94D00464E670E080E090E00E944D0560E084E30E947E
:20392000D00464E670E080E090E00E944D0561E08EE10E94D00464E670E080E090E00E9423
:203940004D0560E08EE10E94D00464E670E080E090E00E944D0561E084E30E94D00464E62A
:2039600070E080E090E00E944D0560E084E30E94D00464E670E080E090E00E944D0561E077
:203980008EE10E94D00464E670E080E090E00E944D0560E08EE10E94D00464E670E080E0C5
:2039A00090E00E944D0560E08EE10E94D00460E084E30E94D00468EE73E080E090E00E9446
:2039C0004D0560E08EE10E94D00460E084E30E94D00468EE73E080E090E00E944D0561E0A5
:2039E0008EE10E94D00464E670E080E090E00E944D0560E08EE10E94D00464E670E080E065
:203A000090E00E944D0561E084E30E94D00464E670E080E090E00E944D0560E084E30E947D
:203A2000D00464E670E080E090E00E944D0561E084E30E94D00464E670E080E090E00E942A
:203A40004D0560E084E30E94D00464E670E080E090E00E944D0560E08EE10E94D00460E034
:203A600084E30E94D00468EE73E080E090E00E944D0561E08EE10E94D00464E670E080E0DC
:203A800090E00E944D0560E08EE10E94D00464E670E080E090E00E944D0561E08EE10E94ED
:203AA000D00464E670E080E090E00E944D0560E08EE10E94D00464E670E080E090E00E94A3
:203AC0004D0561E084E30E94D00464E670E080E090E00E944D0560E084E30E94D00464E6B1
:203AE00070E080E090E00E944D0561E08EE10E94D00464E670E080E090E00E944D0560E0EE
:203B00008EE10E94D00464E670E080E090E00E944D0561E084E30E94D00464E670E080E04A
:203B200090E00E944D0560E084E30E94D00464E670E080E090E00E944D0561E08EE10E9454
:203B4000D00464E670E080E090E00E944D0560E08EE10E94D00464E670E080E090E00E9402
:203B60004D0560E08EE10E94D00460E084E30E94D00468EE73E080E090E00E944D0560E004
:203B80008EE10E94D00460E084E30E94D00468EE73E080E090E00E944D0561E084E30E946C
:203BA000D00464E670E080E090E00E944D0560E084E30E94D00464E670E080E090E00E94AA
:203BC0004D0560E08EE10E94D00460E084E30E94D00468EE73E080E090E00E944D0561E0A3
:203BE00084E30E94D00464E670E080E090E00E944D0560E084E30E94D00464E670E080E073
:203C000090E00E944D0560E08EE10E94D00460E084E30E94D00468EE73E080E090E00E94E3
:203C20004D0561E084E30E94D00464E670E080E090E00E944D0560E084E30E94D00464E64F
:203C400070E080E090E00E944D0560E08EE10E94D00460E084E30E94D00468EE73E080E005
:203C600090E00E944D0561E084E30E94D00464E670E080E090E00E944D0560E084E30E941B
:203C8000D00464E670E080E090E00E944D0560E08EE10E94D00460E084E30E94D00468EE5A
:203CA00073E080E090E00E944D0561E084E30E94D00464E670E080E090E00E944D0560E031
:203CC00084E30E94D00464E670E080E090E00E944D0560E08EE10E94D00460E084E30E943B
:203CE000D00468EE73E080E090E00E944D0561E084E30E94D00464E670E080E090E00E9459
:203D00004D0560E084E30E94D00464E670E080E090E00E944D0560E08EE10E94D00460E071
:203D200084E30E94D00468EE73E080E090E00E944D0561E084E30E94D00464E670E080E021
:203D400090E00E944D0560E084E30E94D00464E670E080E090E00E944D0560E08EE10E9433
:203D6000D00460E084E30E94D00468EE73E080E090E00E944D0561E084E30E94D00464E67D
:203D800070E080E090E00E944D0560E084E30E94D00464E670E080E090E00E944D0560E054
:203DA0008EE10E94D00460E084E30E94D00468EE73E080E090E00E944D0561E084E30E944A
:203DC000D00464E670E080E090E00E944D0560E084E30E94D00464E670E080E090E00E9488
:203DE0004D0560E08EE10E94D00460E084E30E94D00468EE73E080E090E00E944D0561E081
:203E000084E30E94D00464E670E080E090E00E944D0560E084E30E94D00464E670E080E050
:203E200090E00E944D0560E08EE10E94D00460E084E30E94D00468EE73E080E090E00E94C1
:203E40004D0561E084E30E94D00464E670E080E090E00E944D0560E084E30E94D00464E62D
:203E600070E080E090E00E944D0560E08EE10E94D00460E084E30E94D00468EE73E080E0E3
:203E800090E00E944D0561E084E30E94D00464E670E080E090E00E944D0560E084E30E94F9
:203EA000D00464E670E080E090E00E944D0560E08EE10E94D00460E084E30E94D00468EE38
:203EC00073E080E090E00E944D0561E084E30E94D00464E670E080E090E00E944D0560E00F
:203EE00084E30E94D00464E670E080E090E00E944D0560E08EE10E94D00460E084E30E9419
:203F0000D00468EE73E080E090E00E944D0561E084E30E94D00464E670E080E090E00E9436
:203F20004D0560E084E30E94D00464E670E080E090E00E944D0560E08EE10E94D00460E04F
:203F400084E30E94D00468EE73E080E090E00E944D0561E084E30E94D00464E670E080E0FF
:203F600090E00E944D0560E084E30E94D00464E670E080E090E00E944D0560E08EE10E9411
:203F8000D00460E084E30E94D00468EE73E080E090E00E944D0561E084E30E94D00464E65B
:203FA00070E080E090E00E944D0560E084E30E94D00464E670E080E090E00E944D0560E032
:203FC0008EE10E94D00460E084E30E94D00468EE73E080E090E00E944D0561E084E30E9428
:203FE000D00464E670E080E090E00E944D0560E084E30E94D00464E670E080E090E00E9466
:204000004D0560E08EE10E94D00460E084E30E94D00468EE73E080E090E00E944D0561E05E
:204020008EE10E94D00464E670E080E090E00E944D0560E08EE10E94D00464E670E080E01E
:2040400090E00E944D0561E08EE10E94D00464E670E080E090E00E944D0560E08EE10E9427
:20406000D00464E670E080E090E00E944D0561E084E30E94D00464E670E080E090E00E94E4
:204080004D0560E084E30E94D00464E670E080E090E00E944D0561E08EE10E94D00464E6E3
:2040A00070E080E090E00E944D0560E08EE10E94D00464E670E080E090E00E944D0561E028
:2040C00084E30E94D00464E670E080E090E00E944D0560E084E30E94D00464E670E080E08E
:2040E00090E00E944D0561E08EE10E94D00464E670E080E090E00E944D0560E08EE10E9487
:20410000D00464E670E080E090E00E944D0560E08EE10E94D00460E084E30E94D00468EED5
:2041200073E080E090E00E944D0560E08EE10E94D00460E084E30E94D00468EE73E080E01D
:2041400090E00E944D0561E08EE10E94D00464E670E080E090E00E944D0560E08EE10E9426
:20416000D00464E670E080E090E00E944D0561E08EE10E94D00464E670E080E090E00E94DB
:204180004D0560E08EE10E94D00464E670E080E090E00E944D0561E08EE10E94D00464E6DA
:2041A00070E080E090E00E944D0560E08EE10E94D00464E670E080E090E00E944D0560E028
:2041C0008EE10E94D00460E084E30E94D00468EE73E080E090E00E944D0561E08EE10E941E
:2041E000D00464E670E080E090E00E944D0560E08EE10E94D00464E670E080E090E00E945C
:204200004D0561E08EE10E94D00464E670E080E090E00E944D0560E08EE10E94D00464E659
:2042200070E080E090E00E944D0561E08EE10E94D00464E670E080E090E00E944D0560E0A6
:204240008EE10E94D00464E670E080E090E00E944D0560E08EE10E94D00460E084E30E94AD
:20426000D00468EE73E080E090E00E944D0561E08EE10E94D00464E670E080E090E00E94CB
:204280004D0560E08EE10E94D00464E670E080E090E00E944D0561E08EE10E94D00464E6D9
:2042A00070E080E090E00E944D0560E08EE10E94D00464E670E080E090E00E944D0561E026
:2042C0008EE10E94D00464E670E080E090E00E944D0560E08EE10E94D00464E670E080E07C
:2042E00090E00E944D0560E08EE10E94D00460E084E30E94D00468EE73E080E090E00E94FD
:204300004D0561E08EE10E94D00464E670E080E090E00E944D0560E08EE10E94D00464E658
:2043200070E080E090E00E944D0561E08EE10E94D00464E670E080E090E00E944D0560E0A5
:204340008EE10E94D00464E670E080E090E00E944D0561E08EE10E94D00464E670E080E0FA
:2043600090E00E944D0560E08EE10E94D00464E670E080E090E00E944D0560E08EE10E9405
:20438000D00460E084E30E94D00468EE73E080E090E00E944D0561E08EE10E94D00464E64F
:2043A00070E080E090E00E944D0560E08EE10E94D00464E670E080E090E00E944D0561E025
:2043C0008EE10E94D00464E670E080E090E00E944D0560E08EE10E94D00464E670E080E07B
:2043E00090E00E944D0561E08EE10E94D00464E670E080E090E00E944D0560E08EE10E9484
:20440000D00464E670E080E090E00E944D0560E08EE10E94D00460E084E30E94D00468EED2
:2044200073E080E090E00E944D0561E08EE10E94D00464E670E080E090E00E944D0560E0A1
:204440008EE10E94D00464E670E080E090E00E944D0561E08EE10E94D00464E670E080E0F9
:2044600090E00E944D0560E08EE10E94D00464E670E080E090E00E944D0561E08EE10E9403
:20448000D00464E670E080E090E00E944D0560E08EE10E94D00464E670E080E090E00E94B9
:2044A0004D0560E08EE10E94D00460E084E30E94D00468EE73E080E090E00E944D0561E0BA
:2044C0008EE10E94D00464E670E080E090E00E944D0560E08EE10E94D00464E670E080E07A
:2044E00090E00E944D0561E08EE10E94D00464E670E080E090E00E944D0560E08EE10E9483
:20450000D00464E670E080E090E00E944D0561E08EE10E94D00464E670E080E090E00E9437
:204520004D0560E08EE10E94D00464E670E080E090E00E944D0560E08EE10E94D00460E041
:2045400084E30E94D00468EE73E080E090E00E944D0561E08EE10E94D00464E670E080E0F1
:2045600090E00E944D0560E08EE10E94D00464E670E080E090E00E944D0561E08EE10E9402
:20458000D00464E670E080E090E00E944D0560E08EE10E94D00464E670E080E090E00E94B8
:2045A0004D0561E08EE10E94D00464E670E080E090E00E944D0560E08EE10E94D00464E6B6
:2045C00070E080E090E00E944D0560E08EE10E94D00460E084E30E94D00468EE73E080E07C
:2045E00090E00E944D0561E08EE10E94D00464E670E080E090E00E944D0560E08EE10E9482
:20460000D00464E670E080E090E00E944D0561E08EE10E94D00464E670E080E090E00E9436
:204620004D0560E08EE10E94D00464E670E080E090E00E944D0561E08EE10E94D00464E635
:2046400070E080E090E00E944D0560E08EE10E94D00464E670E080E090E00E944D0560E083
:204660008EE10E94D00460E084E30E94D00468EE73E080E090E00E944D0561E08EE10E9479
:20468000D00464E670E080E090E00E944D0560E08EE10E94D00464E670E080E090E00E94B7
:2046A0004D0561E08EE10E94D00464E670E080E090E00E944D0560E08EE10E94D00464E6B5
:2046C00070E080E090E00E944D0561E08EE10E94D00464E670E080E090E00E944D0560E002
:2046E0008EE10E94D00464E670E080E090E00E944D0560E08EE10E94D00460E084E30E9409
:20470000D00468EE73E080E090E00E944D0561E08EE10E94D00464E670E080E090E00E9426
:204720004D0560E08EE10E94D00464E670E080E090E00E944D0561E08EE10E94D00464E634
:2047400070E080E090E00E944D0560E08EE10E94D00464E670E080E090E00E944D0561E081
:204760008EE10E94D00464E670E080E090E00E944D0560E08EE10E94D00464E670E080E0D7
:2047800090E00E944D0560E08EE10E94D00460E084E30E94D00468EE73E080E090E00E9458
:2047A0004D0561E08EE10E94D00464E670E080E090E00E944D0560E08EE10E94D00464E6B4
:2047C00070E080E090E00E944D0561E08EE10E94D00464E670E080E090E00E944D0560E001
:2047E0008EE10E94D00464E670E080E090E00E944D0561E08EE10E94D00464E670E080E056
:2048000090E00E944D0560E08EE10E94D00464E670E080E090E00E944D0560E08EE10E9460
:20482000D00460E084E30E94D00468EE73E080E090E00E944D0561E08EE10E94D00464E6AA
:2048400070E080E090E00E944D0560E08EE10E94D00464E670E080E090E00E944D0561E080
:204860008EE10E94D00464E670E080E090E00E944D0560E08EE10E94D00464E670E080E0D6
:2048800090E00E944D0561E08EE10E94D00464E670E080E090E00E944D0560E08EE10E94DF
:2048A000D00464E670E080E090E00E944D0560E08EE10E94D00460E084E30E94D00468EE2E
:2048C00073E080E090E00E944D0561E08EE10E94D00464E670E080E090E00E944D0560E0FD
:2048E0008EE10E94D00464E670E080E090E00E944D0561E08EE10E94D00464E670E080E055
:2049000090E00E944D0560E08EE10E94D00464E670E080E090E00E944D0561E08EE10E945E
:20492000D00464E670E080E090E00E944D0560E08EE10E94D00464E670E080E090E00E9414
:204940004D0560E08EE10E94D00460E084E30E94D00468EE73E080E090E00E944D0561E015
:204960008EE10E94D00464E670E080E090E00E944D0560E08EE10E94D00464E670E080E0D5
:2049800090E00E944D0561E08EE10E94D00464E670E080E090E00E944D0560E08EE10E94DE
:2049A000D00464E670E080E090E00E944D0561E084E30E94D00464E670E080E090E00E949B
:2049C0004D0560E084E30E94D00464E670E080E090E00E944D0561E08EE10E94D00464E69A
:2049E00070E080E090E00E944D0560E08EE10E94D00464E670E080E090E00E944D0561E0DF
:204A000084E30E94D00464E670E080E090E00E944D0560E084E30E94D00464E670E080E044
:204A200090E00E944D0561E08EE10E94D00464E670E080E090E00E944D0560E08EE10E943D
:204A4000D00464E670E080E090E00E944D0560E08EE10E94D00460E084E30E94D00468EE8C
:204A600073E080E090E00E944D0560E08EE10E94D00460E084E30E94D00468EE73E080E0D4
:204A800090E00E944D0561E08EE10E94D00464E670E080E090E00E944D0560E08EE10E94DD
:204AA000D00464E670E080E090E00E944D0561E084E30E94D00464E670E080E090E00E949A
:204AC0004D0560E084E30E94D00464E670E080E090E00E944D0561E08EE10E94D00464E699
:204AE00070E080E090E00E944D0560E08EE10E94D00464E670E080E090E00E944D0560E0DF
:204B00008EE10E94D00460E084E30E94D00468EE73E080E090E00E944D0561E084E30E94DC
:204B2000D00464E670E080E090E00E944D0560E084E30E94D00464E670E080E090E00E941A
:204B40004D0560E08EE10E94D00460E084E30E94D00468EE73E080E090E00E944D0561E013
:204B600084E30E94D00464E670E080E090E00E944D0560E084E30E94D00464E670E080E0E3
:204B800090E00E944D0560E08EE10E94D00460E084E30E94D00468EE73E080E090E00E9454
:204BA0004D0561E084E30E94D00464E670E080E090E00E944D0560E084E30E94D00464E6C0
:204BC00070E080E090E00E944D0560E08EE10E94D00460E084E30E94D00468EE73E080E076
:204BE00090E00E944D0561E084E30E94D00464E670E080E090E00E944D0560E084E30E948C
:204C0000D00464E670E080E090E00E944D0560E08EE10E94D00460E084E30E94D00468EECA
:204C200073E080E090E00E944D0561E084E30E94D00464E670E080E090E00E944D0560E0A1
:204C400084E30E94D00464E670E080E090E00E944D0560E08EE10E94D00460E084E30E94AB
:204C6000D00468EE73E080E090E00E944D0561E084E30E94D00464E670E080E090E00E94C9
:204C80004D0560E084E30E94D00464E670E080E090E00E944D0560E08EE10E94D00460E0E2
:204CA00084E30E94D00468EE73E080E090E00E944D0561E084E30E94D00464E670E080E092
:204CC00090E00E944D0560E084E30E94D00464E670E080E090E00E944D0560E08EE10E94A4
:204CE000D00460E084E30E94D00468EE73E080E090E00E944D0561E084E30E94D00464E6EE
:204D000070E080E090E00E944D0560E084E30E94D00464E670E080E090E00E944D0560E0C4
:204D20008EE10E94D00460E084E30E94D00468EE73E080E090E00E944D0561E08EE10E94B2
:204D4000D00464E670E080E090E00E944D0560E08EE10E94D00464E670E080E090E00E94F0
:204D60004D0561E08EE10E94D00464E670E080E090E00E944D0560E08EE10E94D00464E6EE
:204D800070E080E090E00E944D0561E084E30E94D00464E670E080E090E00E944D0560E043
:204DA00084E30E94D00464E670E080E090E00E944D0561E08EE10E94D00464E670E080E098
:204DC00090E00E944D0560E08EE10E94D00464E670E080E090E00E944D0561E084E30E94A2
:204DE000D00464E670E080E090E00E944D0560E084E30E94D00464E670E080E090E00E9458
:204E00004D0561E08EE10E94D00464E670E080E090E00E944D0560E08EE10E94D00464E64D
:204E200070E080E090E00E944D0560E08EE10E94D00460E084E30E94D00468EE73E080E013
:204E400090E00E944D0560E08EE10E94D00460E084E30E94D00468EE73E080E090E00E9491
:204E60004D0561E08EE10E94D00464E670E080E090E00E944D0560E08EE10E94D00464E6ED
:204E800070E080E090E00E944D0561E084E30E94D00464E670E080E090E00E944D0560E042
:204EA00084E30E94D00464E670E080E090E00E944D0561E084E30E94D00464E670E080E09F
:204EC00090E00E944D0560E084E30E94D00464E670E080E090E00E944D0560E08EE10E94A2
:204EE000D00460E084E30E94D00468EE73E080E090E00E944D0561E08EE10E94D00464E6E4
:204F000070E080E090E00E944D0560E08EE10E94D00464E670E080E090E00E944D0561E0B9
:204F200084E30E94D00464E670E080E090E00E944D0560E084E30E94D00464E670E080E01F
:204F400090E00E944D0561E084E30E94D00464E670E080E090E00E944D0560E084E30E9428
:204F6000D00464E670E080E090E00E944D0560E08EE10E94D00460E084E30E94D00468EE67
:204F800073E080E090E00E944D0561E084E30E94D00464E670E080E090E00E944D0560E03E
:204FA00084E30E94D00464E670E080E090E00E944D0560E08EE10E94D00460E084E30E9448
:204FC000D00468EE73E080E090E00E944D0561E084E30E94D00464E670E080E090E00E9466
:204FE0004D0560E084E30E94D00464E670E080E090E00E944D0560E08EE10E94D00460E07F
:2050000084E30E94D00468EE73E080E090E00E944D0561E084E30E94D00464E670E080E02E
:2050200090E00E944D0560E084E30E94D00464E670E080E090E00E944D0560E08EE10E9440
:20504000D00460E084E30E94D00468EE73E080E090E00E944D0561E084E30E94D00464E68A
:2050600070E080E090E00E944D0560E084E30E94D00464E670E080E090E00E944D0560E061
:205080008EE10E94D00460E084E30E94D00468EE73E080E090E00E944D0561E084E30E9457
:2050A000D00464E670E080E090E00E944D0560E084E30E94D00464E670E080E090E00E9495
:2050C0004D0560E08EE10E94D00460E084E30E94D00468EE73E080E090E00E944D0561E08E
:2050E00084E30E94D00464E670E080E090E00E944D0560E084E30E94D00464E670E080E05E
:2051000090E00E944D0560E08EE10E94D00460E084E30E94D00468EE73E080E090E00E94CE
:205120004D0561E084E30E94D00464E670E080E090E00E944D0560E084E30E94D00464E63A
:2051400070E080E090E00E944D0560E08EE10E94D00460E084E30E94D00468EE73E080E0F0
:2051600090E00E944D0561E084E30E94D00464E670E080E090E00E944D0560E084E30E9406
:20518000D00464E670E080E090E00E944D0560E08EE10E94D00460E084E30E94D00468EE45
:2051A00073E080E090E00E944D0561E084E30E94D00464E670E080E090E00E944D0560E01C
:2051C00084E30E94D00464E670E080E090E00E944D0560E08EE10E94D00460E084E30E9426
:2051E000D00468EE73E080E090E00E944D0561E084E30E94D00464E670E080E090E00E9444
:205200004D0560E084E30E94D00464E670E080E090E00E944D0560E08EE10E94D00460E05C
:2052200084E30E94D00468EE73E080E090E00E944D0561E084E30E94D00464E670E080E00C
:2052400090E00E944D0560E084E30E94D00464E670E080E090E00E944D0560E08EE10E941E
:20526000D00460E084E30E94D00468EE73E080E090E00E944D0561E084E30E94D00464E668
:2052800070E080E090E00E944D0560E084E30E94D00464E670E080E090E00E944D0560E03F
:2052A0008EE10E94D00460E084E30E94D00468EE73E080E090E00E944D0561E084E30E9435
:2052C000D00464E670E080E090E00E944D0560E084E30E94D00464E670E080E090E00E9473
:2052E0004D0560E08EE10E94D00460E084E30E94D00468EE73E080E090E00E944D0561E06C
:2053000084E30E94D00464E670E080E090E00E944D0560E084E30E94D00464E670E080E03B
:2053200090E00E944D0560E08EE10E94D00460E084E30E94D00468EE73E080E090E00E94AC
:205340004D0561E084E30E94D00464E670E080E090E00E944D0560E084E30E94D00464E618
:2053600070E080E090E00E944D0560E08EE10E94D00460E084E30E94D00468EE73E080E0CE
:2053800090E00E944D0561E084E30E94D00464E670E080E090E00E944D0560E084E30E94E4
:2053A000D00464E670E080E090E00E944D0560E08EE10E94D00460E084E30E94D00468EE23
:2053C00073E080E090E00E944D0561E084E30E94D00464E670E080E090E00E944D0560E0FA
:2053E00084E30E94D00464E670E080E090E00E944D0560E08EE10E94D00460E084E30E9404
:20540000D00468EE73E080E090E00E944D0561E084E30E94D00464E670E080E090E00E9421
:205420004D0560E084E30E94D00464E670E080E090E00E944D0560E08EE10E94D00460E03A
:2054400084E30E94D00468EE73E080E090E00E944D0561E08EE10E94D00464E670E080E0E2
:2054600090E00E944D0560E08EE10E94D00464E670E080E090E00E944D0561E08EE10E94F3
:20548000D00464E670E080E090E00E944D0560E08EE10E94D00464E670E080E090E00E94A9
:2054A0004D0561E084E30E94D00464E670E080E090E00E944D0560E084E30E94D00464E6B7
:2054C00070E080E090E00E944D0561E08EE10E94D00464E670E080E090E00E944D0560E0F4
:2054E0008EE10E94D00464E670E080E090E00E944D0561E084E30E94D00464E670E080E051
:2055000090E00E944D0560E084E30E94D00464E670E080E090E00E944D0561E08EE10E945A
:20552000D00464E670E080E090E00E944D0560E08EE10E94D00464E670E080E090E00E9408
:205540004D0560E08EE10E94D00460E084E30E94D00468EE73E080E090E00E944D0560E00A
:205560008EE10E94D00460E084E30E94D00468EE73E080E090E00E944D0561E08EE10E946A
:20558000D00464E670E080E090E00E944D0560E08EE10E94D00464E670E080E090E00E94A8
:2055A0004D0561E084E30E94D00464E670E080E090E00E944D0560E084E30E94D00464E6B6
:2055C00070E080E090E00E944D0561E08EE10E94D00464E670E080E090E00E944D0560E0F3
:2055E0008EE10E94D00464E670E080E090E00E944D0560E08EE10E94D00460E084E30E94FA
:20560000D00468EE73E080E090E00E944D0561E08EE10E94D00464E670E080E090E00E9417
:205620004D0560E08EE10E94D00464E670E080E090E00E944D0561E084E30E94D00464E62D
:2056400070E080E090E00E944D0560E084E30E94D00464E670E080E090E00E944D0561E07A
:205660008EE10E94D00464E670E080E090E00E944D0560E08EE10E94D00464E670E080E0C8
:2056800090E00E944D0560E08EE10E94D00460E084E30E94D00468EE73E080E090E00E9449
:2056A0004D0561E08EE10E94D00464E670E080E090E00E944D0560E08EE10E94D00464E6A5
:2056C00070E080E090E00E944D0561E08EE10E94D00464E670E080E090E00E944D0560E0F2
:2056E0008EE10E94D00464E670E080E090E00E944D0561E08EE10E94D00464E670E080E047
:2057000090E00E944D0560E08EE10E94D00464E670E080E090E00E944D0560E08EE10E9451
:20572000D00460E084E30E94D00468EE73E080E090E00E944D0561E08EE10E94D00464E69B
:2057400070E080E090E00E944D0560E08EE10E94D00464E670E080E090E00E944D0561E071
:205760008EE10E94D00464E670E080E090E00E944D0560E08EE10E94D00464E670E080E0C7
:2057800090E00E944D0561E08EE10E94D00464E670E080E090E00E944D0560E08EE10E94D0
:2057A000D00464E670E080E090E00E944D0560E08EE10E94D00460E084E30E94D00468EE1F
:2057C00073E080E090E00E944D0561E08EE10E94D00464E670E080E090E00E944D0560E0EE
:2057E0008EE10E94D00464E670E080E090E00E944D0561E08EE10E94D00464E670E080E046
:2058000090E00E944D0560E08EE10E94D00464E670E080E090E00E944D0561E08EE10E944F
:20582000D00464E670E080E090E00E944D0560E08EE10E94D00464E670E080E090E00E9405
:205840004D0560E08EE10E94D00460E084E30E94D00468EE73E080E090E00E944D0561E006
:205860008EE10E94D00464E670E080E090E00E944D0560E08EE10E94D00464E670E080E0C6
:2058800090E00E944D0561E08EE10E94D00464E670E080E090E00E944D0560E08EE10E94CF
:2058A000D00464E670E080E090E00E944D0561E08EE10E94D00464E670E080E090E00E9484
:2058C0004D0560E08EE10E94D00464E670E080E090E00E944D0560E08EE10E94D00460E08E
:2058E00084E30E94D00468EE73E080E090E00E944D0561E08EE10E94D00464E670E080E03E
:2059000090E00E944D0560E08EE10E94D00464E670E080E090E00E944D0561E08EE10E944E
:20592000D00464E670E080E090E00E944D0560E08EE10E94D00464E670E080E090E00E9404
:205940004D0561E08EE10E94D00464E670E080E090E00E944D0560E08EE10E94D00464E602
:2059600070E080E090E00E944D0560E08EE10E94D00460E084E30E94D00468EE73E080E0C8
:2059800090E00E944D0561E08EE10E94D00464E670E080E090E00E944D0560E08EE10E94CE
:2059A000D00464E670E080E090E00E944D0561E08EE10E94D00464E670E080E090E00E9483
:2059C0004D0560E08EE10E94D00464E670E080E090E00E944D0561E08EE10E94D00464E682
:2059E00070E080E090E00E944D0560E08EE10E94D00464E670E080E090E00E944D0560E0D0
:205A00008EE10E94D00460E084E30E94D00468EE73E080E090E00E944D0561E08EE10E94C5
:205A2000D00464E670E080E090E00E944D0560E08EE10E94D00464E670E080E090E00E9403
:205A40004D0561E08EE10E94D00464E670E080E090E00E944D0560E08EE10E94D00464E601
:205A600070E080E090E00E944D0561E08EE10E94D00464E670E080E090E00E944D0560E04E
:205A80008EE10E94D00464E670E080E090E00E944D0560E08EE10E94D00460E084E30E9455
:205AA000D00468EE73E080E090E00E944D0561E08EE10E94D00464E670E080E090E00E9473
:205AC0004D0560E08EE10E94D00464E670E080E090E00E944D0561E08EE10E94D00464E681
:205AE00070E080E090E00E944D0560E08EE10E94D00464E670E080E090E00E944D0561E0CE
:205B00008EE10E94D00464E670E080E090E00E944D0560E08EE10E94D00464E670E080E023
:205B200090E00E944D0560E08EE10E94D00460E084E30E94D00468EE73E080E090E00E94A4
:205B40004D0561E08EE10E94D00464E670E080E090E00E944D0560E08EE10E94D00464E600
:205B600070E080E090E00E944D0561E08EE10E94D00464E670E080E090E00E944D0560E04D
:205B80008EE10E94D00464E670E080E090E00E944D0561E08EE10E94D00464E670E080E0A2
:205BA00090E00E944D0560E08EE10E94D00464E670E080E090E00E944D0560E08EE10E94AD
:205BC000D00460E084E30E94D00468EE73E080E090E00E944D0561E08EE10E94D00464E6F7
:205BE00070E080E090E00E944D0560E08EE10E94D00464E670E080E090E00E944D0561E0CD
:205C00008EE10E94D00464E670E080E090E00E944D0560E08EE10E94D00464E670E080E022
:205C200090E00E944D0561E08EE10E94D00464E670E080E090E00E944D0560E08EE10E942B
:205C4000D00464E670E080E090E00E944D0560E08EE10E94D00460E084E30E94D00468EE7A
:205C600073E080E090E00E944D0561E08EE10E94D00464E670E080E090E00E944D0560E049
:205C80008EE10E94D00464E670E080E090E00E944D0561E08EE10E94D00464E670E080E0A1
:205CA00090E00E944D0560E08EE10E94D00464E670E080E090E00E944D0561E08EE10E94AB
:205CC000D00464E670E080E090E00E944D0560E08EE10E94D00464E670E080E090E00E9461
:205CE0004D0560E08EE10E94D00460E084E30E94D00468EE73E080E090E00E944D0561E062
:205D00008EE10E94D00464E670E080E090E00E944D0560E08EE10E94D00464E670E080E021
:205D200090E00E944D0561E08EE10E94D00464E670E080E090E00E944D0560E08EE10E942A
:205D4000D00464E670E080E090E00E944D0561E08EE10E94D00464E670E080E090E00E94DF
:205D60004D0560E08EE10E94D00464E670E080E090E00E944D0560E08EE10E94D00460E0E9
:205D800084E30E94D00468EE73E080E090E00E944D0561E08EE10E94D00464E670E080E099
:205DA00090E00E944D0560E08EE10E94D00464E670E080E090E00E944D0561E08EE10E94AA
:205DC000D00464E670E080E090E00E944D0560E08EE10E94D00464E670E080E090E00E9460
:205DE0004D0561E08EE10E94D00464E670E080E090E00E944D0560E08EE10E94D00464E65E
:205E000070E080E090E00E944D0560E08EE10E94D00460E084E30E94D00468EE73E080E023
:205E200090E00E944D0561E08EE10E94D00464E670E080E090E00E944D0560E08EE10E9429
:205E4000D00464E670E080E090E00E944D0561E08EE10E94D00464E670E080E090E00E94DE
:205E60004D0560E08EE10E94D00464E670E080E090E00E944D0561E084E30E94D00464E6E5
:205E800070E080E090E00E944D0560E084E30E94D00464E670E080E090E00E944D0561E032
:205EA0008EE10E94D00464E670E080E090E00E944D0560E08EE10E94D00464E670E080E080
:205EC00090E00E944D0561E084E30E94D00464E670E080E090E00E944D0560E084E30E9499
:205EE000D00464E670E080E090E00E944D0561E08EE10E94D00464E670E080E090E00E943E
:205F00004D0560E08EE10E94D00464E670E080E090E00E944D0560E08EE10E94D00460E047
:205F200084E30E94D00468EE73E080E090E00E944D0560E08EE10E94D00460E084E30E94A9
:205F4000D00468EE73E080E090E00E944D0561E08EE10E94D00464E670E080E090E00E94CE
:205F60004D0560E08EE10E94D00464E670E080E090E00E944D0561E084E30E94D00464E6E4
:205F800070E080E090E00E944D0560E084E30E94D00464E670E080E090E00E944D0561E031
:205FA00084E30E94D00464E670E080E090E00E944D0560E084E30E94D00464E670E080E08F
:205FC00090E00E944D0560E08EE10E94D00460E084E30E94D00468EE73E080E090E00E9400
:205FE0004D0561E08EE10E94D00464E670E080E090E00E944D0560E08EE10E94D00464E65C
:2060000070E080E090E00E944D0561E084E30E94D00464E670E080E090E00E944D0560E0B0
:2060200084E30E94D00464E670E080E090E00E944D0561E084E30E94D00464E670E080E00D
:2060400090E00E944D0560E084E30E94D00464E670E080E090E00E944D0560E08EE10E9410
:20606000D00460E084E30E94D00468EE73E080E090E00E944D0561E084E30E94D00464E65A
:2060800070E080E090E00E944D0560E084E30E94D00464E670E080E090E00E944D0560E031
:2060A0008EE10E94D00460E084E30E94D00468EE73E080E090E00E944D0561E084E30E9427
:2060C000D00464E670E080E090E00E944D0560E084E30E94D00464E670E080E090E00E9465
:2060E0004D0560E08EE10E94D00460E084E30E94D00468EE73E080E090E00E944D0561E05E
:2061000084E30E94D00464E670E080E090E00E944D0560E084E30E94D00464E670E080E02D
:2061200090E00E944D0560E08EE10E94D00460E084E30E94D00468EE73E080E090E00E949E
:206140004D0561E08EE10E94D00464E670E080E090E00E944D0560E08EE10E94D00464E6FA
:2061600070E080E090E00E944D0561E08EE10E94D00464E670E080E090E00E944D0560E047
:206180008EE10E94D00464E670E080E090E00E944D0561E084E30E94D00464E670E080E0A4
:2061A00090E00E944D0560E084E30E94D00464E670E080E090E00E944D0561E08EE10E94AE
:2061C000D00464E670E080E090E00E944D0560E08EE10E94D00464E670E080E090E00E945C
:2061E0004D0561E084E30E94D00464E670E080E090E00E944D0560E084E30E94D00464E66A
:2062000070E080E090E00E944D0561E08EE10E94D00464E670E080E090E00E944D0560E0A6
:206220008EE10E94D00464E670E080E090E00E944D0560E08EE10E94D00460E084E30E94AD
:20624000D00468EE73E080E090E00E944D0560E08EE10E94D00460E084E30E94D00468EE65
:2062600073E080E090E00E944D0561E08EE10E94D00464E670E080E090E00E944D0560E043
:206280008EE10E94D00464E670E080E090E00E944D0561E084E30E94D00464E670E080E0A3
:2062A00090E00E944D0560E084E30E94D00464E670E080E090E00E944D0561E08EE10E94AD
:2062C000D00464E670E080E090E00E944D0560E08EE10E94D00464E670E080E090E00E945B
:2062E0004D0560E08EE10E94D00460E084E30E94D00468EE73E080E090E00E944D0561E05C
:206300008EE10E94D00464E670E080E090E00E944D0560E08EE10E94D00464E670E080E01B
:2063200090E00E944D0561E084E30E94D00464E670E080E090E00E944D0560E084E30E9434
:20634000D00464E670E080E090E00E944D0561E08EE10E94D00464E670E080E090E00E94D9
:206360004D0560E08EE10E94D00464E670E080E090E00E944D0560E08EE10E94D00460E0E3
:2063800084E30E94D00468EE73E080E090E00E944D0561E084E30E94D00464E670E080E09B
:2063A00090E00E944D0560E084E30E94D00464E670E080E090E00E944D0560E08EE10E94AD
:2063C000D00460E084E30E94D00468EE73E080E090E00E944D0561E084E30E94D00464E6F7
:2063E00070E080E090E00E944D0560E084E30E94D00464E670E080E090E00E944D0560E0CE
:206400008EE10E94D00460E084E30E94D00468EE73E080E090E00E944D0561E084E30E94C3
:20642000D00464E670E080E090E00E944D0560E084E30E94D00464E670E080E090E00E9401
:206440004D0560E08EE10E94D00460E084E30E94D00468EE73E080E090E00E944D0561E0FA
:2064600084E30E94D00464E670E080E090E00E944D0560E084E30E94D00464E670E080E0CA
:2064800090E00E944D0560E08EE10E94D00460E084E30E94D00468EE73E080E090E00E943B
:2064A0004D0561E084E30E94D00464E670E080E090E00E944D0560E084E30E94D00464E6A7
:2064C00070E080E090E00E944D0560E08EE10E94D00460E084E30E94D00468EE73E080E05D
:2064E00090E00E944D0561E084E30E94D00464E670E080E090E00E944D0560E084E30E9473
:20650000D00464E670E080E090E00E944D0560E08EE10E94D00460E084E30E94D00468EEB1
:2065200073E080E090E00E944D0561E084E30E94D00464E670E080E090E00E944D0560E088
:2065400084E30E94D00464E670E080E090E00E944D0560E08EE10E94D00460E084E30E9492
:20656000D00468EE73E080E090E00E944D0561E084E30E94D00464E670E080E090E00E94B0
:206580004D0560E084E30E94D00464E670E080E090E00E944D0560E08EE10E94D00460E0C9
:2065A00084E30E94D00468EE73E080E090E00E944D0561E084E30E94D00464E670E080E079
:2065C00090E00E944D0560E084E30E94D00464E670E080E090E00E944D0560E08EE10E948B
:2065E000D00460E084E30E94D00468EE73E080E090E00E944D0561E084E30E94D00464E6D5
:2066000070E080E090E00E944D0560E084E30E94D00464E670E080E090E00E944D0560E0AB
:206620008EE10E94D00460E084E30E94D00468EE73E080E090E00E944D0561E084E30E94A1
:20664000D00464E670E080E090E00E944D0560E084E30E94D00464E670E080E090E00E94DF
:206660004D0560E08EE10E94D00460E084E30E94D00468EE73E080E090E00E944D0561E0D8
:2066800084E30E94D00464E670E080E090E00E944D0560E084E30E94D00464E670E080E0A8
:2066A00090E00E944D0560E08EE10E94D00460E084E30E94D00468EE73E080E090E00E9419
:2066C0004D0561E08EE10E94D00464E670E080E090E00E944D0560E08EE10E94D00464E675
:2066E00070E080E090E00E944D0561E08EE10E94D00464E670E080E090E00E944D0560E0C2
:206700008EE10E94D00464E670E080E090E00E944D0561E084E30E94D00464E670E080E01E
:2067200090E00E944D0560E084E30E94D00464E670E080E090E00E944D0561E08EE10E9428
:20674000D00464E670E080E090E00E944D0560E08EE10E94D00464E670E080E090E00E94D6
:206760004D0561E084E30E94D00464E670E080E090E00E944D0560E084E30E94D00464E6E4
:2067800070E080E090E00E944D0561E08EE10E94D00464E670E080E090E00E944D0560E021
:2067A0008EE10E94D00464E670E080E090E00E944D0560E08EE10E94D00460E084E30E9428
:2067C000D00468EE73E080E090E00E944D0560E08EE10E94D00460E084E30E94D00468EEE0
:2067E00073E080E090E00E944D0561E08EE10E94D00464E670E080E090E00E944D0560E0BE
:206800008EE10E94D00464E670E080E090E00E944D0561E084E30E94D00464E670E080E01D
:2068200090E00E944D0560E084E30E94D00464E670E080E090E00E944D0561E084E30E942F
:20684000D00464E670E080E090E00E944D0560E084E30E94D00464E670E080E090E00E94DD
:206860004D0560E08EE10E94D00460E084E30E94D00468EE73E080E090E00E944D0561E0D6
:2068800084E30E94D00464E670E080E090E00E944D0560E084E30E94D00464E670E080E0A6
:2068A00090E00E944D0560E08EE10E94D00460E084E30E94D00468EE73E080E090E00E9417
:2068C0004D0561E084E30E94D00464E670E080E090E00E944D0560E084E30E94D00464E683
:2068E00070E080E090E00E944D0560E08EE10E94D00460E084E30E94D00468EE73E080E039
:2069000090E00E944D0561E084E30E94D00464E670E080E090E00E944D0560E084E30E944E
:20692000D00464E670E080E090E00E944D0560E08EE10E94D00460E084E30E94D00468EE8D
